{
  "_format": "hh-sol-artifact-1",
  "contractName": "Crowdfunding",
  "sourceName": "contracts/Crowdfunding.sol",
  "abi": [
    {
      "anonymous": false,
      "inputs": [
        {
          "indexed": false,
          "internalType": "uint256",
          "name": "campaignId",
          "type": "uint256"
        },
        {
          "indexed": false,
          "internalType": "address",
          "name": "creator",
          "type": "address"
        },
        {
          "indexed": false,
          "internalType": "string",
          "name": "title",
          "type": "string"
        },
        {
          "indexed": false,
          "internalType": "uint256",
          "name": "targetAmount",
          "type": "uint256"
        },
        {
          "indexed": false,
          "internalType": "uint256",
          "name": "deadline",
          "type": "uint256"
        }
      ],
      "name": "CampaignCreated",
      "type": "event"
    },
    {
      "inputs": [
        {
          "internalType": "uint256",
          "name": "",
          "type": "uint256"
        }
      ],
      "name": "campaignIds",
      "outputs": [
        {
          "internalType": "uint256",
          "name": "",
          "type": "uint256"
        }
      ],
      "stateMutability": "view",
      "type": "function"
    },
    {
      "inputs": [
        {
          "internalType": "uint256",
          "name": "",
          "type": "uint256"
        }
      ],
      "name": "campaigns",
      "outputs": [
        {
          "internalType": "address payable",
          "name": "creator",
          "type": "address"
        },
        {
          "internalType": "string",
          "name": "title",
          "type": "string"
        },
        {
          "internalType": "string",
          "name": "description",
          "type": "string"
        },
        {
          "internalType": "string",
          "name": "imageURL",
          "type": "string"
        },
        {
          "internalType": "uint256",
          "name": "targetAmount",
          "type": "uint256"
        },
        {
          "internalType": "uint256",
          "name": "minimumContribution",
          "type": "uint256"
        },
        {
          "internalType": "uint256",
          "name": "deadline",
          "type": "uint256"
        },
        {
          "internalType": "uint256",
          "name": "amountRaised",
          "type": "uint256"
        },
        {
          "internalType": "uint256",
          "name": "contributorsCount",
          "type": "uint256"
        },
        {
          "internalType": "uint256",
          "name": "totalContributions",
          "type": "uint256"
        },
        {
          "internalType": "bool",
          "name": "hasTransfered",
          "type": "bool"
        }
      ],
      "stateMutability": "view",
      "type": "function"
    },
    {
      "inputs": [
        {
          "internalType": "uint256",
          "name": "_campaignIds",
          "type": "uint256"
        }
      ],
      "name": "contirbution",
      "outputs": [
        {
          "internalType": "uint256",
          "name": "totalContributions",
          "type": "uint256"
        }
      ],
      "stateMutability": "payable",
      "type": "function"
    },
    {
      "inputs": [
        {
          "internalType": "string",
          "name": "_title",
          "type": "string"
        },
        {
          "internalType": "string",
          "name": "_description",
          "type": "string"
        },
        {
          "internalType": "string",
          "name": "_imageURL",
          "type": "string"
        },
        {
          "internalType": "uint256",
          "name": "_targetAmount",
          "type": "uint256"
        },
        {
          "internalType": "uint256",
          "name": "_minimumContribution",
          "type": "uint256"
        },
        {
          "internalType": "uint256",
          "name": "_deadline",
          "type": "uint256"
        }
      ],
      "name": "createCampaign",
      "outputs": [
        {
          "internalType": "uint256",
          "name": "",
          "type": "uint256"
        }
      ],
      "stateMutability": "nonpayable",
      "type": "function"
    },
    {
      "inputs": [],
      "name": "getAllCampaignIds",
      "outputs": [
        {
          "internalType": "uint256[]",
          "name": "",
          "type": "uint256[]"
        }
      ],
      "stateMutability": "view",
      "type": "function"
    },
    {
      "inputs": [
        {
          "internalType": "uint256",
          "name": "_campaignId",
          "type": "uint256"
        }
      ],
      "name": "getCampaignDetails",
      "outputs": [
        {
          "internalType": "address",
          "name": "creator",
          "type": "address"
        },
        {
          "internalType": "string",
          "name": "title",
          "type": "string"
        },
        {
          "internalType": "uint256",
          "name": "targetAmount",
          "type": "uint256"
        },
        {
          "internalType": "uint256",
          "name": "deadline",
          "type": "uint256"
        },
        {
          "internalType": "uint256",
          "name": "amountRaised",
          "type": "uint256"
        }
      ],
      "stateMutability": "view",
      "type": "function"
    },
    {
      "inputs": [],
      "name": "getCampaignsCount",
      "outputs": [
        {
          "internalType": "uint256",
          "name": "",
          "type": "uint256"
        }
      ],
      "stateMutability": "view",
      "type": "function"
    },
    {
      "inputs": [],
      "name": "getOngoingCampaignsSummary",
      "outputs": [
        {
          "internalType": "uint256[]",
          "name": "campaignIdsArray",
          "type": "uint256[]"
        },
        {
          "internalType": "string[]",
          "name": "titles",
          "type": "string[]"
        },
        {
          "internalType": "address[]",
          "name": "creators",
          "type": "address[]"
        },
        {
          "internalType": "uint256[]",
          "name": "targetAmounts",
          "type": "uint256[]"
        },
        {
          "internalType": "uint256[]",
          "name": "deadlines",
          "type": "uint256[]"
        }
      ],
      "stateMutability": "view",
      "type": "function"
    },
    {
      "inputs": [],
      "name": "nextCampaignId",
      "outputs": [
        {
          "internalType": "uint256",
          "name": "",
          "type": "uint256"
        }
      ],
      "stateMutability": "view",
      "type": "function"
    },
    {
      "inputs": [
        {
          "internalType": "uint256",
          "name": "_campaignId",
          "type": "uint256"
        }
      ],
      "name": "withdrawFunds",
      "outputs": [
        {
          "internalType": "uint256",
          "name": "amountRaised",
          "type": "uint256"
        }
      ],
      "stateMutability": "nonpayable",
      "type": "function"
    }
  ],
  "bytecode": "0x6080604052348015600f57600080fd5b506122bb8061001f6000396000f3fe6080604052600436106100915760003560e01c80637903a756116100595780637903a756146101b25780637e6253da146101dd578063b369359d14610208578063b65c1b4814610245578063d993de621461027457610091565b80630418249614610096578063141961bc146100c1578063155dd5ee1461010857806327f2b91d14610145578063565cff6514610182575b600080fd5b3480156100a257600080fd5b506100ab6102b5565b6040516100b89190611199565b60405180910390f35b3480156100cd57600080fd5b506100e860048036038101906100e391906111fb565b61030d565b6040516100ff9b9a99989796959493929190611323565b60405180910390f35b34801561011457600080fd5b5061012f600480360381019061012a91906111fb565b61052c565b60405161013c91906113e3565b60405180910390f35b34801561015157600080fd5b5061016c60048036038101906101679190611533565b610776565b60405161017991906113e3565b60405180910390f35b61019c600480360381019061019791906111fb565b610a2f565b6040516101a991906113e3565b60405180910390f35b3480156101be57600080fd5b506101c7610b18565b6040516101d491906113e3565b60405180910390f35b3480156101e957600080fd5b506101f2610b1e565b6040516101ff91906113e3565b60405180910390f35b34801561021457600080fd5b5061022f600480360381019061022a91906111fb565b610b2b565b60405161023c91906113e3565b60405180910390f35b34801561025157600080fd5b5061025a610b4f565b60405161026b9594939291906117f0565b60405180910390f35b34801561028057600080fd5b5061029b600480360381019061029691906111fb565b610f77565b6040516102ac959493929190611875565b60405180910390f35b6060600280548060200260200160405190810160405280929190818152602001828054801561030357602002820191906000526020600020905b8154815260200190600101908083116102ef575b5050505050905090565b60016020528060005260406000206000915090508060000160009054906101000a900473ffffffffffffffffffffffffffffffffffffffff1690806001018054610356906118fe565b80601f0160208091040260200160405190810160405280929190818152602001828054610382906118fe565b80156103cf5780601f106103a4576101008083540402835291602001916103cf565b820191906000526020600020905b8154815290600101906020018083116103b257829003601f168201915b5050505050908060020180546103e4906118fe565b80601f0160208091040260200160405190810160405280929190818152602001828054610410906118fe565b801561045d5780601f106104325761010080835404028352916020019161045d565b820191906000526020600020905b81548152906001019060200180831161044057829003601f168201915b505050505090806003018054610472906118fe565b80601f016020809104026020016040519081016040528092919081815260200182805461049e906118fe565b80156104eb5780601f106104c0576101008083540402835291602001916104eb565b820191906000526020600020905b8154815290600101906020018083116104ce57829003601f168201915b50505050509080600401549080600501549080600601549080600701549080600801549080600901549080600a0160009054906101000a900460ff1690508b565b6000600282815481106105425761054161192f565b5b906000526020600020505060006001600084815260200190815260200160002090506000816007015490508160000160009054906101000a900473ffffffffffffffffffffffffffffffffffffffff1673ffffffffffffffffffffffffffffffffffffffff163373ffffffffffffffffffffffffffffffffffffffff16146105ff576040517f08c379a00000000000000000000000000000000000000000000000000000000081526004016105f6906119d0565b60405180910390fd5b4282600601541115610646576040517f08c379a000000000000000000000000000000000000000000000000000000000815260040161063d90611a62565b60405180910390fd5b600082600701541161068d576040517f08c379a000000000000000000000000000000000000000000000000000000000815260040161068490611ace565b60405180910390fd5b6000826007018190555060008260000160009054906101000a900473ffffffffffffffffffffffffffffffffffffffff1673ffffffffffffffffffffffffffffffffffffffff16826040516106e190611b1f565b60006040518083038185875af1925050503d806000811461071e576040519150601f19603f3d011682016040523d82523d6000602084013e610723565b606091505b5050905080610767576040517f08c379a000000000000000000000000000000000000000000000000000000000815260040161075e90611b80565b60405180910390fd5b82600701549350505050919050565b60004282116107ba576040517f08c379a00000000000000000000000000000000000000000000000000000000081526004016107b190611bec565b60405180910390fd5b600084116107fd576040517f08c379a00000000000000000000000000000000000000000000000000000000081526004016107f490611c7e565b60405180910390fd5b60008311610840576040517f08c379a000000000000000000000000000000000000000000000000000000000815260040161083790611d10565b60405180910390fd5b83831115610883576040517f08c379a000000000000000000000000000000000000000000000000000000000815260040161087a90611da2565b60405180910390fd5b600a836108909190611df1565b8410156108d2576040517f08c379a00000000000000000000000000000000000000000000000000000000081526004016108c990611ea5565b60405180910390fd5b6000805490506000808154809291906108ea90611ec5565b91905055506000600160008381526020019081526020016000209050338160000160006101000a81548173ffffffffffffffffffffffffffffffffffffffff021916908373ffffffffffffffffffffffffffffffffffffffff1602179055508881600101908161095a91906120b9565b508781600201908161096c91906120b9565b508681600301908161097e91906120b9565b5085816004018190555084816005018190555083816006018190555060008160070181905550600081600801819055506000816009018190555060028290806001815401808255809150506001900390600052602060002001600090919091909150557fdc26653af5b99b2da33e2ad69ee6600d9aeccc82b034501db4338309615ca23882338b8988604051610a1895949392919061218b565b60405180910390a181925050509695505050505050565b600080349050600060016000858152602001908152602001600020905060028481548110610a6057610a5f61192f565b5b90600052602060002050506000548410610aaf576040517f08c379a0000000000000000000000000000000000000000000000000000000008152600401610aa690612231565b60405180910390fd5b34600160008681526020019081526020016000206007016000828254610ad59190612251565b92505081905550600060016000868152602001908152602001600020600901541115610b0a578183610b079190612251565b92505b806009015492505050919050565b60005481565b6000600280549050905090565b60028181548110610b3b57600080fd5b906000526020600020016000915090505481565b60608060608060606000805b600280549050811015610bc057426001600060028481548110610b8157610b8061192f565b5b90600052602060002001548152602001908152602001600020600601541115610bb3578180610baf90611ec5565b9250505b8080600101915050610b5b565b5060008167ffffffffffffffff811115610bdd57610bdc611408565b5b604051908082528060200260200182016040528015610c0b5781602001602082028036833780820191505090505b50905060008267ffffffffffffffff811115610c2a57610c29611408565b5b604051908082528060200260200182016040528015610c5d57816020015b6060815260200190600190039081610c485790505b50905060008367ffffffffffffffff811115610c7c57610c7b611408565b5b604051908082528060200260200182016040528015610caa5781602001602082028036833780820191505090505b50905060008467ffffffffffffffff811115610cc957610cc8611408565b5b604051908082528060200260200182016040528015610cf75781602001602082028036833780820191505090505b50905060008567ffffffffffffffff811115610d1657610d15611408565b5b604051908082528060200260200182016040528015610d445781602001602082028036833780820191505090505b5090506000805b600280549050811015610f595760006001600060028481548110610d7257610d7161192f565b5b9060005260206000200154815260200190815260200160002090504281600601541115610f4b5760028281548110610dad57610dac61192f565b5b9060005260206000200154888481518110610dcb57610dca61192f565b5b602002602001018181525050806001018054610de6906118fe565b80601f0160208091040260200160405190810160405280929190818152602001828054610e12906118fe565b8015610e5f5780601f10610e3457610100808354040283529160200191610e5f565b820191906000526020600020905b815481529060010190602001808311610e4257829003601f168201915b5050505050878481518110610e7757610e7661192f565b5b60200260200101819052508060000160009054906101000a900473ffffffffffffffffffffffffffffffffffffffff16868481518110610eba57610eb961192f565b5b602002602001019073ffffffffffffffffffffffffffffffffffffffff16908173ffffffffffffffffffffffffffffffffffffffff16815250508060040154858481518110610f0c57610f0b61192f565b5b6020026020010181815250508060060154848481518110610f3057610f2f61192f565b5b6020026020010181815250508280610f4790611ec5565b9350505b508080600101915050610d4b565b5085858585859b509b509b509b509b50505050505050509091929394565b60006060600080600080548610610fc3576040517f08c379a0000000000000000000000000000000000000000000000000000000008152600401610fba90612231565b60405180910390fd5b60028681548110610fd757610fd661192f565b5b906000526020600020505060006001600088815260200190815260200160002090508060000160009054906101000a900473ffffffffffffffffffffffffffffffffffffffff168160010182600401548360060154846007015483805461103d906118fe565b80601f0160208091040260200160405190810160405280929190818152602001828054611069906118fe565b80156110b65780601f1061108b576101008083540402835291602001916110b6565b820191906000526020600020905b81548152906001019060200180831161109957829003601f168201915b50505050509350955095509550955095505091939590929450565b600081519050919050565b600082825260208201905092915050565b6000819050602082019050919050565b6000819050919050565b611110816110fd565b82525050565b60006111228383611107565b60208301905092915050565b6000602082019050919050565b6000611146826110d1565b61115081856110dc565b935061115b836110ed565b8060005b8381101561118c5781516111738882611116565b975061117e8361112e565b92505060018101905061115f565b5085935050505092915050565b600060208201905081810360008301526111b3818461113b565b905092915050565b6000604051905090565b600080fd5b600080fd5b6111d8816110fd565b81146111e357600080fd5b50565b6000813590506111f5816111cf565b92915050565b600060208284031215611211576112106111c5565b5b600061121f848285016111e6565b91505092915050565b600073ffffffffffffffffffffffffffffffffffffffff82169050919050565b600061125382611228565b9050919050565b61126381611248565b82525050565b600081519050919050565b600082825260208201905092915050565b60005b838110156112a3578082015181840152602081019050611288565b60008484015250505050565b6000601f19601f8301169050919050565b60006112cb82611269565b6112d58185611274565b93506112e5818560208601611285565b6112ee816112af565b840191505092915050565b611302816110fd565b82525050565b60008115159050919050565b61131d81611308565b82525050565b600061016082019050611339600083018e61125a565b818103602083015261134b818d6112c0565b9050818103604083015261135f818c6112c0565b90508181036060830152611373818b6112c0565b9050611382608083018a6112f9565b61138f60a08301896112f9565b61139c60c08301886112f9565b6113a960e08301876112f9565b6113b76101008301866112f9565b6113c56101208301856112f9565b6113d3610140830184611314565b9c9b505050505050505050505050565b60006020820190506113f860008301846112f9565b92915050565b600080fd5b600080fd5b7f4e487b7100000000000000000000000000000000000000000000000000000000600052604160045260246000fd5b611440826112af565b810181811067ffffffffffffffff8211171561145f5761145e611408565b5b80604052505050565b60006114726111bb565b905061147e8282611437565b919050565b600067ffffffffffffffff82111561149e5761149d611408565b5b6114a7826112af565b9050602081019050919050565b82818337600083830152505050565b60006114d66114d184611483565b611468565b9050828152602081018484840111156114f2576114f1611403565b5b6114fd8482856114b4565b509392505050565b600082601f83011261151a576115196113fe565b5b813561152a8482602086016114c3565b91505092915050565b60008060008060008060c087890312156115505761154f6111c5565b5b600087013567ffffffffffffffff81111561156e5761156d6111ca565b5b61157a89828a01611505565b965050602087013567ffffffffffffffff81111561159b5761159a6111ca565b5b6115a789828a01611505565b955050604087013567ffffffffffffffff8111156115c8576115c76111ca565b5b6115d489828a01611505565b94505060606115e589828a016111e6565b93505060806115f689828a016111e6565b92505060a061160789828a016111e6565b9150509295509295509295565b600081519050919050565b600082825260208201905092915050565b6000819050602082019050919050565b600082825260208201905092915050565b600061165c82611269565b6116668185611640565b9350611676818560208601611285565b61167f816112af565b840191505092915050565b60006116968383611651565b905092915050565b6000602082019050919050565b60006116b682611614565b6116c0818561161f565b9350836020820285016116d285611630565b8060005b8581101561170e57848403895281516116ef858261168a565b94506116fa8361169e565b925060208a019950506001810190506116d6565b50829750879550505050505092915050565b600081519050919050565b600082825260208201905092915050565b6000819050602082019050919050565b600061175782611228565b9050919050565b6117678161174c565b82525050565b6000611779838361175e565b60208301905092915050565b6000602082019050919050565b600061179d82611720565b6117a7818561172b565b93506117b28361173c565b8060005b838110156117e35781516117ca888261176d565b97506117d583611785565b9250506001810190506117b6565b5085935050505092915050565b600060a082019050818103600083015261180a818861113b565b9050818103602083015261181e81876116ab565b905081810360408301526118328186611792565b90508181036060830152611846818561113b565b9050818103608083015261185a818461113b565b90509695505050505050565b61186f8161174c565b82525050565b600060a08201905061188a6000830188611866565b818103602083015261189c81876112c0565b90506118ab60408301866112f9565b6118b860608301856112f9565b6118c560808301846112f9565b9695505050505050565b7f4e487b7100000000000000000000000000000000000000000000000000000000600052602260045260246000fd5b6000600282049050600182168061191657607f821691505b602082108103611929576119286118cf565b5b50919050565b7f4e487b7100000000000000000000000000000000000000000000000000000000600052603260045260246000fd5b7f4e4f20424520594f552043524541544520544849532043414d504149474e2c2060008201527f4f4c452100000000000000000000000000000000000000000000000000000000602082015250565b60006119ba602483611274565b91506119c58261195e565b604082019050919050565b600060208201905081810360008301526119e9816119ad565b9050919050565b7f596f752068617665206e6f74206d65742074686520646561646c696e65206f6660008201527f20796f75722063616d706169676e000000000000000000000000000000000000602082015250565b6000611a4c602e83611274565b9150611a57826119f0565b604082019050919050565b60006020820190508181036000830152611a7b81611a3f565b9050919050565b7f596f75722063616d706169676e20686173206e6f2066756e6473000000000000600082015250565b6000611ab8601a83611274565b9150611ac382611a82565b602082019050919050565b60006020820190508181036000830152611ae781611aab565b9050919050565b600081905092915050565b50565b6000611b09600083611aee565b9150611b1482611af9565b600082019050919050565b6000611b2a82611afc565b9150819050919050565b7f5472616e73666572206661696c65640000000000000000000000000000000000600082015250565b6000611b6a600f83611274565b9150611b7582611b34565b602082019050919050565b60006020820190508181036000830152611b9981611b5d565b9050919050565b7f446561646c696e65206d75737420626520696e20746865206675747572650000600082015250565b6000611bd6601e83611274565b9150611be182611ba0565b602082019050919050565b60006020820190508181036000830152611c0581611bc9565b9050919050565b7f54617267657420616d6f756e74206d757374206265206772656174657220746860008201527f616e207a65726f00000000000000000000000000000000000000000000000000602082015250565b6000611c68602783611274565b9150611c7382611c0c565b604082019050919050565b60006020820190508181036000830152611c9781611c5b565b9050919050565b7f4d696e696d756d20636f6e747269627574696f6e206d7573742062652067726560008201527f61746572207468616e207a65726f000000000000000000000000000000000000602082015250565b6000611cfa602e83611274565b9150611d0582611c9e565b604082019050919050565b60006020820190508181036000830152611d2981611ced565b9050919050565b7f4d696e696d756d20636f6e747269627574696f6e2063616e6e6f74206578636560008201527f65642074617267657420616d6f756e7400000000000000000000000000000000602082015250565b6000611d8c603083611274565b9150611d9782611d30565b604082019050919050565b60006020820190508181036000830152611dbb81611d7f565b9050919050565b7f4e487b7100000000000000000000000000000000000000000000000000000000600052601160045260246000fd5b6000611dfc826110fd565b9150611e07836110fd565b9250828202611e15816110fd565b91508282048414831517611e2c57611e2b611dc2565b5b5092915050565b7f54617267657420616d6f756e74206d757374206265206174206c65617374203160008201527f302074696d657320746865206d696e696d756d20636f6e747269627574696f6e602082015250565b6000611e8f604083611274565b9150611e9a82611e33565b604082019050919050565b60006020820190508181036000830152611ebe81611e82565b9050919050565b6000611ed0826110fd565b91507fffffffffffffffffffffffffffffffffffffffffffffffffffffffffffffffff8203611f0257611f01611dc2565b5b600182019050919050565b60008190508160005260206000209050919050565b60006020601f8301049050919050565b600082821b905092915050565b600060088302611f6f7fffffffffffffffffffffffffffffffffffffffffffffffffffffffffffffffff82611f32565b611f798683611f32565b95508019841693508086168417925050509392505050565b6000819050919050565b6000611fb6611fb1611fac846110fd565b611f91565b6110fd565b9050919050565b6000819050919050565b611fd083611f9b565b611fe4611fdc82611fbd565b848454611f3f565b825550505050565b600090565b611ff9611fec565b612004818484611fc7565b505050565b5b818110156120285761201d600082611ff1565b60018101905061200a565b5050565b601f82111561206d5761203e81611f0d565b61204784611f22565b81016020851015612056578190505b61206a61206285611f22565b830182612009565b50505b505050565b600082821c905092915050565b600061209060001984600802612072565b1980831691505092915050565b60006120a9838361207f565b9150826002028217905092915050565b6120c282611269565b67ffffffffffffffff8111156120db576120da611408565b5b6120e582546118fe565b6120f082828561202c565b600060209050601f8311600181146121235760008415612111578287015190505b61211b858261209d565b865550612183565b601f19841661213186611f0d565b60005b8281101561215957848901518255600182019150602085019450602081019050612134565b868310156121765784890151612172601f89168261207f565b8355505b6001600288020188555050505b505050505050565b600060a0820190506121a060008301886112f9565b6121ad6020830187611866565b81810360408301526121bf81866112c0565b90506121ce60608301856112f9565b6121db60808301846112f9565b9695505050505050565b7f43616d706169676e20494420646f6573206e6f74206578697374000000000000600082015250565b600061221b601a83611274565b9150612226826121e5565b602082019050919050565b6000602082019050818103600083015261224a8161220e565b9050919050565b600061225c826110fd565b9150612267836110fd565b925082820190508082111561227f5761227e611dc2565b5b9291505056fea2646970667358221220003d741e6656278e8dd3720f3e9e54be34fa998b3dd7fc69e770f1ccf1f2541f64736f6c634300081c0033",
  "linkReferences": {},
  "deployedLinkReferences": {}
}